{
  "_format": "hh-sol-artifact-1",
  "contractName": "SafePassKeyNFT",
  "sourceName": "contracts/test/TestNFT.sol",
  "abi": [
    {
      "inputs": [
        {
          "internalType": "string",
          "name": "name",
          "type": "string"
        },
        {
          "internalType": "string",
          "name": "symbol",
          "type": "string"
        }
      ],
      "stateMutability": "nonpayable",
      "type": "constructor"
    },
    {
      "anonymous": false,
      "inputs": [
        {
          "indexed": true,
          "internalType": "address",
          "name": "owner",
          "type": "address"
        },
        {
          "indexed": true,
          "internalType": "address",
          "name": "approved",
          "type": "address"
        },
        {
          "indexed": true,
          "internalType": "uint256",
          "name": "tokenId",
          "type": "uint256"
        }
      ],
      "name": "Approval",
      "type": "event"
    },
    {
      "anonymous": false,
      "inputs": [
        {
          "indexed": true,
          "internalType": "address",
          "name": "owner",
          "type": "address"
        },
        {
          "indexed": true,
          "internalType": "address",
          "name": "operator",
          "type": "address"
        },
        {
          "indexed": false,
          "internalType": "bool",
          "name": "approved",
          "type": "bool"
        }
      ],
      "name": "ApprovalForAll",
      "type": "event"
    },
    {
      "anonymous": false,
      "inputs": [
        {
          "indexed": true,
          "internalType": "address",
          "name": "from",
          "type": "address"
        },
        {
          "indexed": true,
          "internalType": "address",
          "name": "to",
          "type": "address"
        },
        {
          "indexed": true,
          "internalType": "uint256",
          "name": "tokenId",
          "type": "uint256"
        }
      ],
      "name": "Transfer",
      "type": "event"
    },
    {
      "inputs": [
        {
          "internalType": "address",
          "name": "to",
          "type": "address"
        },
        {
          "internalType": "uint256",
          "name": "tokenId",
          "type": "uint256"
        }
      ],
      "name": "approve",
      "outputs": [],
      "stateMutability": "nonpayable",
      "type": "function"
    },
    {
      "inputs": [
        {
          "internalType": "address",
          "name": "owner",
          "type": "address"
        }
      ],
      "name": "balanceOf",
      "outputs": [
        {
          "internalType": "uint256",
          "name": "",
          "type": "uint256"
        }
      ],
      "stateMutability": "view",
      "type": "function"
    },
    {
      "inputs": [
        {
          "internalType": "uint256",
          "name": "tokenId",
          "type": "uint256"
        }
      ],
      "name": "getApproved",
      "outputs": [
        {
          "internalType": "address",
          "name": "",
          "type": "address"
        }
      ],
      "stateMutability": "view",
      "type": "function"
    },
    {
      "inputs": [
        {
          "internalType": "address",
          "name": "owner",
          "type": "address"
        },
        {
          "internalType": "address",
          "name": "operator",
          "type": "address"
        }
      ],
      "name": "isApprovedForAll",
      "outputs": [
        {
          "internalType": "bool",
          "name": "",
          "type": "bool"
        }
      ],
      "stateMutability": "view",
      "type": "function"
    },
    {
      "inputs": [],
      "name": "mint",
      "outputs": [],
      "stateMutability": "nonpayable",
      "type": "function"
    },
    {
      "inputs": [],
      "name": "name",
      "outputs": [
        {
          "internalType": "string",
          "name": "",
          "type": "string"
        }
      ],
      "stateMutability": "view",
      "type": "function"
    },
    {
      "inputs": [
        {
          "internalType": "uint256",
          "name": "tokenId",
          "type": "uint256"
        }
      ],
      "name": "ownerOf",
      "outputs": [
        {
          "internalType": "address",
          "name": "",
          "type": "address"
        }
      ],
      "stateMutability": "view",
      "type": "function"
    },
    {
      "inputs": [
        {
          "internalType": "address",
          "name": "from",
          "type": "address"
        },
        {
          "internalType": "address",
          "name": "to",
          "type": "address"
        },
        {
          "internalType": "uint256",
          "name": "tokenId",
          "type": "uint256"
        }
      ],
      "name": "safeTransferFrom",
      "outputs": [],
      "stateMutability": "nonpayable",
      "type": "function"
    },
    {
      "inputs": [
        {
          "internalType": "address",
          "name": "from",
          "type": "address"
        },
        {
          "internalType": "address",
          "name": "to",
          "type": "address"
        },
        {
          "internalType": "uint256",
          "name": "tokenId",
          "type": "uint256"
        },
        {
          "internalType": "bytes",
          "name": "data",
          "type": "bytes"
        }
      ],
      "name": "safeTransferFrom",
      "outputs": [],
      "stateMutability": "nonpayable",
      "type": "function"
    },
    {
      "inputs": [
        {
          "internalType": "address",
          "name": "operator",
          "type": "address"
        },
        {
          "internalType": "bool",
          "name": "approved",
          "type": "bool"
        }
      ],
      "name": "setApprovalForAll",
      "outputs": [],
      "stateMutability": "nonpayable",
      "type": "function"
    },
    {
      "inputs": [
        {
          "internalType": "bytes4",
          "name": "interfaceId",
          "type": "bytes4"
        }
      ],
      "name": "supportsInterface",
      "outputs": [
        {
          "internalType": "bool",
          "name": "",
          "type": "bool"
        }
      ],
      "stateMutability": "view",
      "type": "function"
    },
    {
      "inputs": [],
      "name": "symbol",
      "outputs": [
        {
          "internalType": "string",
          "name": "",
          "type": "string"
        }
      ],
      "stateMutability": "view",
      "type": "function"
    },
    {
      "inputs": [
        {
          "internalType": "uint256",
          "name": "tokenId",
          "type": "uint256"
        }
      ],
      "name": "tokenURI",
      "outputs": [
        {
          "internalType": "string",
          "name": "",
          "type": "string"
        }
      ],
      "stateMutability": "view",
      "type": "function"
    },
    {
      "inputs": [
        {
          "internalType": "address",
          "name": "from",
          "type": "address"
        },
        {
          "internalType": "address",
          "name": "to",
          "type": "address"
        },
        {
          "internalType": "uint256",
          "name": "tokenId",
          "type": "uint256"
        }
      ],
      "name": "transferFrom",
      "outputs": [],
      "stateMutability": "nonpayable",
      "type": "function"
    }
  ],
  "bytecode": "0x608060405234620003205762001489803803806200001d8162000325565b9283398101604082820312620003205781516001600160401b0392908381116200032057826200004f9183016200034b565b906020928382015185811162000320576200006b92016200034b565b9281518181116200030a576000938454916001948584811c94168015620002ff575b83851014620002eb578190601f9485811162000298575b5083908583116001146200023457889262000228575b5050600019600383901b1c191690851b1785555b8551928311620002145783548481811c9116801562000209575b82821014620001f557828111620001ad575b50809183116001146200014757508394829394926200013b575b5050600019600383901b1c191690821b1790555b6006556040516110cb9081620003be8239f35b01519050388062000114565b90601f198316958486528286209286905b8882106200019557505083859697106200017b575b505050811b01905562000128565b015160001960f88460031b161c191690553880806200016d565b80878596829496860151815501950193019062000158565b8486528186208380860160051c820192848710620001eb575b0160051c019085905b828110620001df575050620000fa565b878155018590620001cf565b92508192620001c6565b634e487b7160e01b86526022600452602486fd5b90607f1690620000e8565b634e487b7160e01b85526041600452602485fd5b015190503880620000ba565b8880528489208894509190601f1984168a5b8782821062000281575050841162000267575b505050811b018555620000ce565b015160001960f88460031b161c1916905538808062000259565b8385015186558b9790950194938401930162000246565b9091508780528388208580850160051c820192868610620002e1575b918991869594930160051c01915b828110620002d2575050620000a4565b8a8155859450899101620002c2565b92508192620002b4565b634e487b7160e01b87526022600452602487fd5b93607f16936200008d565b634e487b7160e01b600052604160045260246000fd5b600080fd5b6040519190601f01601f191682016001600160401b038111838210176200030a57604052565b919080601f84011215620003205782516001600160401b0381116200030a5760209062000381601f8201601f1916830162000325565b92818452828287010111620003205760005b818110620003a957508260009394955001015290565b85810183015184820184015282016200039356fe608060408181526004918236101561001657600080fd5b600092833560e01c91826301ffc9a7146108e35750816306fdde0314610816578163081812fc146107ee578163095ea7b3146106595781631249c58b1461052757816323b872dd146104fd57816342842e0e146104d45781636352211e146104a457816370a08231146103fa57816395d89b41146102dd578163a22cb4651461020d578163b88d4fde1461017f578163c87b56dd1461010f575063e985e9c5146100bf57600080fd5b3461010b578060031936011261010b5760ff816020936100dd6109f2565b6100e5610a0d565b6001600160a01b0391821683526005875283832091168252855220549151911615158152f35b5080fd5b83833461010b57602036600319011261010b5761014e61014961017b943560005260026020526001600160a01b0360406000205416151590565b610b76565b81815161015a81610a58565b5280519161016783610a58565b8252519182916020835260208301906109b2565b0390f35b919050346102095760803660031901126102095761019b6109f2565b6101a3610a0d565b846064359467ffffffffffffffff861161010b573660238701121561010b57850135946101db6101d287610aac565b95519586610a8a565b858552366024878301011161010b578561020696602460209301838801378501015260443591610be6565b80f35b8280fd5b919050346102095780600319360112610209576102286109f2565b90602435918215158093036102d9576001600160a01b0316928333146102975750338452600560205280842083855260205280842060ff1981541660ff8416179055519081527f17307eab39ab6107e8899845ad3d59bd9653f200f220920489ca2b5937696c3160203392a380f35b6020606492519162461bcd60e51b8352820152601960248201527f4552433732313a20617070726f766520746f2063616c6c6572000000000000006044820152fd5b8480fd5b8284346103f757806003193601126103f75781519181600192600154938460011c91600186169586156103ed575b60209687851081146103da578899509688969785829a5291826000146103b3575050600114610357575b50505061017b9291610348910385610a8a565b519282849384528301906109b2565b9190869350600183527fb10e2d527612073b26eecdfd717e6a320cf44b4afac2b0732d9fcbe2b7fa0cf65b82841061039b575050508201018161034861017b610335565b8054848a018601528895508794909301928101610382565b60ff19168782015293151560051b86019093019350849250610348915061017b9050610335565b60248360228c634e487b7160e01b835252fd5b92607f169261030b565b80fd5b8391503461010b57602036600319011261010b576001600160a01b0361041e6109f2565b1690811561043b5760208480858581526003845220549051908152f35b608490602085519162461bcd60e51b8352820152602960248201527f4552433732313a2061646472657373207a65726f206973206e6f74206120766160448201527f6c6964206f776e657200000000000000000000000000000000000000000000006064820152fd5b8284346103f75760203660031901126103f757506001600160a01b036104cc60209335610bc1565b915191168152f35b50503461010b57610206906104e836610a23565b919251926104f584610a58565b858452610be6565b83346103f75761020661050f36610a23565b9161052261051d8433610cc7565b610b05565b610da6565b83833461010b578160031936011261010b576006549033156106165761056c6105668360005260026020526001600160a01b0360406000205416151590565b15610c7c565b61058f6105668360005260026020526001600160a01b0360406000205416151590565b338352600360205280832060018154019055818352600260205282203373ffffffffffffffffffffffffffffffffffffffff1982541617905533827fddf252ad1be2c89b69c2b068fc378daa952ba7f163c4a11628f55a4df523b3ef8180a460065460001981146106035760010160065580f35b506011602492634e487b7160e01b835252fd5b836020606492519162461bcd60e51b8352820152602060248201527f4552433732313a206d696e7420746f20746865207a65726f20616464726573736044820152fd5b9050346102095781600319360112610209576106736109f2565b90602435926001600160a01b0391828061068c87610bc1565b1694169380851461078557803314908115610766575b50156106fe5784865260205284208273ffffffffffffffffffffffffffffffffffffffff198254161790556106d683610bc1565b167f8c5be1e5ebec7d5bd14f71427d1e84f3dd0314c0f7b2291e5b200ac8c7c3b9258480a480f35b6020608492519162461bcd60e51b8352820152603d60248201527f4552433732313a20617070726f76652063616c6c6572206973206e6f7420746f60448201527f6b656e206f776e6572206f7220617070726f76656420666f7220616c6c0000006064820152fd5b90508652600560205281862033875260205260ff8287205416386106a2565b506020608492519162461bcd60e51b8352820152602160248201527f4552433732313a20617070726f76616c20746f2063757272656e74206f776e6560448201527f72000000000000000000000000000000000000000000000000000000000000006064820152fd5b8284346103f75760203660031901126103f757506001600160a01b036104cc60209335610ac8565b8284346103f757806003193601126103f7578151918182549260018460011c91600186169586156108d9575b60209687851081146103da578899509688969785829a5291826000146103b357505060011461087e5750505061017b9291610348910385610a8a565b91908693508280527f290decd9548b62a8d60345a988386fc84ba6bc95484008f6362f93160ef3e5635b8284106108c1575050508201018161034861017b610335565b8054848a0186015288955087949093019281016108a8565b92607f1692610842565b84913461020957602036600319011261020957357fffffffff00000000000000000000000000000000000000000000000000000000811680910361020957602092507f80ac58cd000000000000000000000000000000000000000000000000000000008114908115610988575b811561095e575b5015158152f35b7f01ffc9a70000000000000000000000000000000000000000000000000000000091501483610957565b7f5b5e139f0000000000000000000000000000000000000000000000000000000081149150610950565b919082519283825260005b8481106109de575050826000602080949584010152601f8019910116010190565b6020818301810151848301820152016109bd565b600435906001600160a01b0382168203610a0857565b600080fd5b602435906001600160a01b0382168203610a0857565b6060906003190112610a08576001600160a01b03906004358281168103610a0857916024359081168103610a08579060443590565b6020810190811067ffffffffffffffff821117610a7457604052565b634e487b7160e01b600052604160045260246000fd5b90601f8019910116810190811067ffffffffffffffff821117610a7457604052565b67ffffffffffffffff8111610a7457601f01601f191660200190565b610aeb6101498260005260026020526001600160a01b0360406000205416151590565b60005260046020526001600160a01b036040600020541690565b15610b0c57565b608460405162461bcd60e51b815260206004820152602d60248201527f4552433732313a2063616c6c6572206973206e6f7420746f6b656e206f776e6560448201527f72206f7220617070726f766564000000000000000000000000000000000000006064820152fd5b15610b7d57565b606460405162461bcd60e51b815260206004820152601860248201527f4552433732313a20696e76616c696420746f6b656e20494400000000000000006044820152fd5b60005260026020526001600160a01b0360406000205416610be3811515610b76565b90565b90610c0a939291610bfa61051d8433610cc7565b610c05838383610da6565b610eda565b15610c1157565b60405162461bcd60e51b815260206004820152603260248201527f4552433732313a207472616e7366657220746f206e6f6e20455243373231526560448201527f63656976657220696d706c656d656e74657200000000000000000000000000006064820152608490fd5b15610c8357565b606460405162461bcd60e51b815260206004820152601c60248201527f4552433732313a20746f6b656e20616c7265616479206d696e746564000000006044820152fd5b906001600160a01b038080610cdb84610bc1565b16931691838314938415610d0e575b508315610cf8575b50505090565b610d0491929350610ac8565b1614388080610cf2565b909350600052600560205260406000208260005260205260ff604060002054169238610cea565b15610d3c57565b608460405162461bcd60e51b815260206004820152602560248201527f4552433732313a207472616e736665722066726f6d20696e636f72726563742060448201527f6f776e65720000000000000000000000000000000000000000000000000000006064820152fd5b90610dce91610db484610bc1565b916001600160a01b03938493848094169485911614610d35565b16918215610e715781610deb91610de486610bc1565b1614610d35565b7fddf252ad1be2c89b69c2b068fc378daa952ba7f163c4a11628f55a4df523b3ef600084815260046020526040812073ffffffffffffffffffffffffffffffffffffffff199081815416905583825260036020526040822060001981540190558482526040822060018154019055858252600260205284604083209182541617905580a4565b608460405162461bcd60e51b8152602060048201526024808201527f4552433732313a207472616e7366657220746f20746865207a65726f2061646460448201527f72657373000000000000000000000000000000000000000000000000000000006064820152fd5b9293919290803b1561108b57610f48946001600160a01b0394604051928391877f150b7a02000000000000000000000000000000000000000000000000000000009687855233600486015216602484015260448301526080606483015281806020998a9560848301906109b2565b03916000988991165af1849181611033575b5061100a575050503d600014611002573d610f7481610aac565b90610f826040519283610a8a565b81528091833d92013e5b80519182610fff5760405162461bcd60e51b815260206004820152603260248201527f4552433732313a207472616e7366657220746f206e6f6e20455243373231526560448201527f63656976657220696d706c656d656e74657200000000000000000000000000006064820152608490fd5b01fd5b506060610f8c565b7fffffffff00000000000000000000000000000000000000000000000000000000161492509050565b9091508581813d8311611084575b61104b8183610a8a565b810103126102d957517fffffffff00000000000000000000000000000000000000000000000000000000811681036102d9579038610f5a565b503d611041565b505091505060019056fea26469706673582212204f78b5389b094c356135127abaa7ccb80a0fe29edc2702c1fea8cb7d97c305c564736f6c63430008170033",
  "linkReferences": {},
  "deployedLinkReferences": {}
}