{
  "_format": "hh-sol-artifact-1",
  "contractName": "WebAuthnValidator",
  "sourceName": "contracts/WebAuthnValidator.sol",
  "abi": [
    {
      "inputs": [
        {
          "internalType": "address",
          "name": "smartAccount",
          "type": "address"
        }
      ],
      "name": "AlreadyInitialized",
      "type": "error"
    },
    {
      "inputs": [],
      "name": "InvalidPublicKey",
      "type": "error"
    },
    {
      "inputs": [
        {
          "internalType": "address",
          "name": "target",
          "type": "address"
        }
      ],
      "name": "InvalidTargetAddress",
      "type": "error"
    },
    {
      "inputs": [
        {
          "internalType": "address",
          "name": "smartAccount",
          "type": "address"
        }
      ],
      "name": "NotInitialized",
      "type": "error"
    },
    {
      "anonymous": false,
      "inputs": [
        {
          "indexed": true,
          "internalType": "address",
          "name": "kernel",
          "type": "address"
        },
        {
          "indexed": true,
          "internalType": "bytes32",
          "name": "authenticatorIdHash",
          "type": "bytes32"
        },
        {
          "indexed": false,
          "internalType": "uint256",
          "name": "pubKeyX",
          "type": "uint256"
        },
        {
          "indexed": false,
          "internalType": "uint256",
          "name": "pubKeyY",
          "type": "uint256"
        }
      ],
      "name": "WebAuthnPublicKeyRegistered",
      "type": "event"
    },
    {
      "inputs": [
        {
          "internalType": "address",
          "name": "smartAccount",
          "type": "address"
        }
      ],
      "name": "isInitialized",
      "outputs": [
        {
          "internalType": "bool",
          "name": "",
          "type": "bool"
        }
      ],
      "stateMutability": "view",
      "type": "function"
    },
    {
      "inputs": [
        {
          "internalType": "uint256",
          "name": "typeID",
          "type": "uint256"
        }
      ],
      "name": "isModuleType",
      "outputs": [
        {
          "internalType": "bool",
          "name": "",
          "type": "bool"
        }
      ],
      "stateMutability": "view",
      "type": "function"
    },
    {
      "inputs": [
        {
          "internalType": "address",
          "name": "sender",
          "type": "address"
        },
        {
          "internalType": "bytes32",
          "name": "hash",
          "type": "bytes32"
        },
        {
          "internalType": "bytes",
          "name": "data",
          "type": "bytes"
        }
      ],
      "name": "isValidSignatureWithSender",
      "outputs": [
        {
          "internalType": "bytes4",
          "name": "",
          "type": "bytes4"
        }
      ],
      "stateMutability": "view",
      "type": "function"
    },
    {
      "inputs": [
        {
          "internalType": "bytes",
          "name": "_data",
          "type": "bytes"
        }
      ],
      "name": "onInstall",
      "outputs": [],
      "stateMutability": "payable",
      "type": "function"
    },
    {
      "inputs": [
        {
          "internalType": "bytes",
          "name": "",
          "type": "bytes"
        }
      ],
      "name": "onUninstall",
      "outputs": [],
      "stateMutability": "payable",
      "type": "function"
    },
    {
      "inputs": [
        {
          "components": [
            {
              "internalType": "address",
              "name": "sender",
              "type": "address"
            },
            {
              "internalType": "uint256",
              "name": "nonce",
              "type": "uint256"
            },
            {
              "internalType": "bytes",
              "name": "initCode",
              "type": "bytes"
            },
            {
              "internalType": "bytes",
              "name": "callData",
              "type": "bytes"
            },
            {
              "internalType": "bytes32",
              "name": "accountGasLimits",
              "type": "bytes32"
            },
            {
              "internalType": "uint256",
              "name": "preVerificationGas",
              "type": "uint256"
            },
            {
              "internalType": "bytes32",
              "name": "gasFees",
              "type": "bytes32"
            },
            {
              "internalType": "bytes",
              "name": "paymasterAndData",
              "type": "bytes"
            },
            {
              "internalType": "bytes",
              "name": "signature",
              "type": "bytes"
            }
          ],
          "internalType": "struct PackedUserOperation",
          "name": "_userOp",
          "type": "tuple"
        },
        {
          "internalType": "bytes32",
          "name": "_userOpHash",
          "type": "bytes32"
        }
      ],
      "name": "validateUserOp",
      "outputs": [
        {
          "internalType": "uint256",
          "name": "",
          "type": "uint256"
        }
      ],
      "stateMutability": "payable",
      "type": "function"
    },
    {
      "inputs": [
        {
          "internalType": "address",
          "name": "kernel",
          "type": "address"
        }
      ],
      "name": "webAuthnValidatorStorage",
      "outputs": [
        {
          "internalType": "uint256",
          "name": "pubKeyX",
          "type": "uint256"
        },
        {
          "internalType": "uint256",
          "name": "pubKeyY",
          "type": "uint256"
        }
      ],
      "stateMutability": "view",
      "type": "function"
    }
  ],
  "bytecode": "0x6080806040523461001657611101908161001c8239f35b600080fdfe6040608081526004908136101561001557600080fd5b600091823560e01c80636d61fe70146102f25780638a91b0e31461025b5780639343e7591461021b57806397003203146101a8578063d60b347f1461015e578063ecd059611461013a5763f551e2ee1461006e57600080fd5b3461013657606036600319011261013657610087610466565b5060443567ffffffffffffffff8111610132576100ad602094926100b792369101610433565b906024353361053f565b1515905061010a577fffffffff000000000000000000000000000000000000000000000000000000007f1626ba7e00000000000000000000000000000000000000000000000000000000915b5191168152f35b7fffffffff000000000000000000000000000000000000000000000000000000008091610103565b8380fd5b8280fd5b50823461015b57602036600319011261015b57506001602092519135148152f35b80fd5b5050346101a45760203660031901126101a45760209061019b61017f610466565b6001600160a01b03166000526000602052604060002054151590565b90519015158152f35b5080fd5b50916003199282843601126101a45767ffffffffffffffff93813585811161013257610120813603928301126101325761010481013591602219018212156101325701908101359384116101a45760240190833603821361015b5750602092610214916024353361053f565b9051908152f35b5050346101a45760203660031901126101a45780916001600160a01b03610240610466565b16815280602052206001815491015482519182526020820152f35b50602036600319011261013657803567ffffffffffffffff8111610132576102869036908301610433565b50506102a8336001600160a01b03166000526000602052604060002054151590565b156102c3575060018291338352826020528220828155015580f35b60249151907ff91bd6f10000000000000000000000000000000000000000000000000000000082523390820152fd5b50602036600319011261013657803567ffffffffffffffff81116101325761031d9036908301610433565b61033d336001600160a01b03166000526000602052604060002054151590565b6104045781908101036060811261040057831361013257825161035f8161047c565b81359283825260208301356020830194818652159081156103f7575b506103d057507fdaa12c36d531747b295ac442f2dc73409156b4e78117b4b178bc019014b6cf5b916001859233885287602052838820905195868255519182910155825194855260208501520135923392a380f35b84517fa2d0fee8000000000000000000000000000000000000000000000000000000008152fd5b9050153861037b565b8480fd5b83517f93360fbf0000000000000000000000000000000000000000000000000000000081523381850152602490fd5b9181601f840112156104615782359167ffffffffffffffff8311610461576020838186019501011161046157565b600080fd5b600435906001600160a01b038216820361046157565b6040810190811067ffffffffffffffff82111761049857604052565b634e487b7160e01b600052604160045260246000fd5b60c0810190811067ffffffffffffffff82111761049857604052565b90601f8019910116810190811067ffffffffffffffff82111761049857604052565b67ffffffffffffffff811161049857601f01601f191660200190565b929192610514826104ec565b9161052260405193846104ca565b829481845281830111610461578281602093846000960137010152565b9193926040908151956105518761047c565b600387526020917f6c6f6c00000000000000000000000000000000000000000000000000000000008389015283516105db816105cd6001600160a01b038783019a7f759f86bb000000000000000000000000000000000000000000000000000000008c52169b8c60248401528860448401526064830190610769565b03601f1981018352826104ca565b60008097819251906a636f6e736f6c652e6c6f675afa5081019360c0828603126107425767ffffffffffffffff94823586811161073e57830181601f8201121561073e5781818661062e93359101610508565b958484013590811161073e57830181601f8201121561073e5790818561065693359101610508565b9060608301359160a084013596871515880361073a5761073698999a6106af88516106808161047c565b600181527f7200000000000000000000000000000000000000000000000000000000000000898201528661078e565b8a52898652868a20958751906106c48261047c565b61071260018954998a8552015498828401998a528a51906106e48261047c565b600482527f6b657978000000000000000000000000000000000000000000000000000000008483015261078e565b8851948186015284526107248461047c565b51955196608086013595013592610818565b5090565b8880fd5b8780fd5b8580fd5b60005b8381106107595750506000910152565b8181015183820152602001610749565b9060209161078281518092818552858086019101610746565b601f01601f1916010190565b600091906105cd6107de849360405192839160208301957f643fd0df0000000000000000000000000000000000000000000000000000000087526024840152604060448401526064830190610769565b51906a636f6e736f6c652e6c6f675afa50565b908151811015610802570160200190565b634e487b7160e01b600052603260045260246000fd5b979593919096949297600197805160258110908115610bd9575b50610bd0575b6040928351926108478461047c565b6015845261087d8c836020967f2274797065223a22776562617574686e2e67657422000000000000000000000088820152610d3d565b15610bc7575b61088c90610e6c565b60008151600281119081610b85575b5015610b2657506002905b8051918203918211610b105782906108bd836104ec565b926108ca885194856104ca565b8084526108d6816104ec565b8488019290601f190136843760005b828110610a5457505050610969602e61096e94610933938a519485927f226368616c6c656e6765223a22000000000000000000000000000000000000008c850152518092602d850190610746565b81017f2200000000000000000000000000000000000000000000000000000000000000602d82015203600e8101845201826104ca565b610cca565b15610a4b575b600061098d849283875192828480945193849201610746565b8101039060025afa15610a40576109e260009182516109d28680518093886109be8184019788815193849201610746565b8201908982015203878101845201826104ca565b8551928392839251928391610746565b8101039060025afa15610a3657506000519660001914610a2457610a069596610e37565b9081610a1c575b50610a1757600090565b600190565b905038610a0d565b919350919350610a3394610da3565b90565b513d6000823e3d90fd5b82513d6000823e3d90fd5b60009950610974565b600191929394506001600160f81b03197f2b0000000000000000000000000000000000000000000000000000000000000081610a9084876107f1565b511603610ab15750602d610aa482886107f1565b535b0190859392916108e5565b7f2f0000000000000000000000000000000000000000000000000000000000000081610add84876107f1565b511603610af75750605f610af182886107f1565b53610aa6565b610b0182856107f1565b511660001a610af182886107f1565b634e487b7160e01b600052601160045260246000fd5b908051600181119081610b43575b50156108a657600191506108a6565b600019810191508111610b71576001600160f81b0319610b68603d60f81b92846107f1565b51161438610b34565b602483634e487b7160e01b81526011600452fd5b600119810191508111610bb3576001600160f81b0319610baa603d60f81b92856107f1565b5116143861089b565b602482634e487b7160e01b81526011600452fd5b60009a50610883565b60009850610838565b90506020101561080257610bfa6001600160f81b0319604083015116610c01565b1538610832565b7f010000000000000000000000000000000000000000000000000000000000000080821603610cb7577f040000000000000000000000000000000000000000000000000000000000000080821603610cb7577f080000000000000000000000000000000000000000000000000000000000000080821603610c83575b50600190565b7f100000000000000000000000000000000000000000000000000000000000000080911614610cb25738610c7d565b600090565b50600090565b91908201809211610b1057565b9081519181519060005b848110610ce5575050505050600190565b6017818101809111610b105783811015610d32576001600160f81b0319610d1981610d1085876107f1565b511692876107f1565b511603610d2857600101610cd4565b5050505050600090565b505050505050600090565b9190825192815160005b858110610d5957505050505050600190565b81610d648287610cbd565b1015610d32576001600160f81b031980610d7e83866107f1565b511690610d94610d8e8489610cbd565b876107f1565b511603610d3257600101610d47565b9192937f7fffffff800000007fffffffffffffffde737d56d38bcf4279dce5617e3192a88411610d28576000948594604051936020850195865260408501526060840152608083015260a082015260a08152610dfe816104ae565b519073c2b78104907f722dabac4c69f826a522b2754de45afa50610e20611023565b602081805181010312610461576020015160011490565b94939291907f7fffffff800000007fffffffffffffffde737d56d38bcf4279dce5617e3192a88211610d3257610a3395611053565b90815115610ffd57604051916060830183811067ffffffffffffffff82111761049857604052604083527f4142434445464748494a4b4c4d4e4f505152535455565758595a61626364656660208401527f6768696a6b6c6d6e6f707172737475767778797a303132333435363738392b2f604084015280519260029160028501809511610b10576003809504928360021b937f3fffffffffffffffffffffffffffffffffffffffffffffffffffffffffffffff811603610b105794610f49610f33856104ec565b94610f4160405196876104ca565b8086526104ec565b6020850190601f190136823792829183518401976020890192835194600085525b8a8110610fb057505050506003939495965052510680600114610f9d57600214610f92575090565b603d90600019015390565b50603d9081600019820153600119015390565b836004919b989b019a8b51600190603f9082828260121c16870101518453828282600c1c16870101518385015382828260061c168701015187850153168401015185820153019699610f6a565b90506040516020810181811067ffffffffffffffff821117610498576040526000815290565b3d1561104e573d90611034826104ec565b9161104260405193846104ca565b82523d6000602084013e565b606090565b92936000959192948695604051946020860196875260408601526060850152608084015260a083015260a08252611089826104ae565b8314610dfe5751906101005afa61109e611023565b901580156110c2575b610cb757602081805181010312610461576020015160011490565b508051156110a756fea2646970667358221220f85b46daa9a6722809387324fdbf67b6b9a55c6a03051129f0a359545ddb772564736f6c63430008170033",
  "linkReferences": {},
  "deployedLinkReferences": {}
}